{
  "contractName": "SimpleWallet",
  "abi": [
    {
      "anonymous": false,
      "inputs": [
        {
          "indexed": false,
          "internalType": "address",
          "name": "sender",
          "type": "address"
        },
        {
          "indexed": false,
          "internalType": "uint256",
          "name": "amount",
          "type": "uint256"
        },
        {
          "indexed": false,
          "internalType": "uint256",
          "name": "balance",
          "type": "uint256"
        }
      ],
      "name": "Deposit",
      "type": "event"
    },
    {
      "anonymous": false,
      "inputs": [
        {
          "indexed": false,
          "internalType": "address",
          "name": "to",
          "type": "address"
        },
        {
          "indexed": false,
          "internalType": "uint256",
          "name": "amount",
          "type": "uint256"
        },
        {
          "indexed": false,
          "internalType": "uint256",
          "name": "balance",
          "type": "uint256"
        }
      ],
      "name": "Transfer",
      "type": "event"
    },
    {
      "anonymous": false,
      "inputs": [
        {
          "indexed": false,
          "internalType": "uint256",
          "name": "amount",
          "type": "uint256"
        },
        {
          "indexed": false,
          "internalType": "uint256",
          "name": "balance",
          "type": "uint256"
        }
      ],
      "name": "Widthdraw",
      "type": "event"
    },
    {
      "inputs": [
        {
          "internalType": "uint256",
          "name": "_amount",
          "type": "uint256"
        }
      ],
      "name": "deposit",
      "outputs": [],
      "stateMutability": "payable",
      "type": "function",
      "payable": true
    },
    {
      "inputs": [
        {
          "internalType": "uint256",
          "name": "_amount",
          "type": "uint256"
        }
      ],
      "name": "withdraw",
      "outputs": [],
      "stateMutability": "nonpayable",
      "type": "function"
    },
    {
      "inputs": [
        {
          "internalType": "address payable",
          "name": "_to",
          "type": "address"
        },
        {
          "internalType": "uint256",
          "name": "_amount",
          "type": "uint256"
        }
      ],
      "name": "transferFunds",
      "outputs": [],
      "stateMutability": "nonpayable",
      "type": "function"
    },
    {
      "inputs": [],
      "name": "getBalace",
      "outputs": [
        {
          "internalType": "uint256",
          "name": "",
          "type": "uint256"
        }
      ],
      "stateMutability": "view",
      "type": "function",
      "constant": true
    }
  ],
  "bytecode": "0x608060405234801561001057600080fd5b50610729806100206000396000f3fe60806040526004361061003f5760003560e01c80632e1a7d4d14610044578063990dc9db1461006d578063b6b55f2514610096578063ec5fb66e146100b2575b600080fd5b34801561005057600080fd5b5061006b60048036038101906100669190610421565b6100dd565b005b34801561007957600080fd5b50610094600480360381019061008f91906103e1565b610251565b005b6100b060048036038101906100ab9190610421565b610365565b005b3480156100be57600080fd5b506100c76103af565b6040516100d4919061056f565b60405180910390f35b60008054906101000a900473ffffffffffffffffffffffffffffffffffffffff1673ffffffffffffffffffffffffffffffffffffffff163373ffffffffffffffffffffffffffffffffffffffff161461016b576040517f08c379a00000000000000000000000000000000000000000000000000000000081526004016101629061054f565b60405180910390fd5b478111156101ae576040517f08c379a00000000000000000000000000000000000000000000000000000000081526004016101a59061052f565b60405180910390fd5b60008054906101000a900473ffffffffffffffffffffffffffffffffffffffff1673ffffffffffffffffffffffffffffffffffffffff166108fc829081150290604051600060405180830381858888f19350505050158015610214573d6000803e3d6000fd5b507fdb28412b7d02100cb0089bd44c6840e53c482ec5fc05deab98e5db6eb690600e814760405161024692919061058a565b60405180910390a150565b60008054906101000a900473ffffffffffffffffffffffffffffffffffffffff1673ffffffffffffffffffffffffffffffffffffffff163373ffffffffffffffffffffffffffffffffffffffff16146102df576040517f08c379a00000000000000000000000000000000000000000000000000000000081526004016102d69061054f565b60405180910390fd5b8173ffffffffffffffffffffffffffffffffffffffff166108fc829081150290604051600060405180830381858888f19350505050158015610325573d6000803e3d6000fd5b507f7fa9aafeb8bb803d77de5d84bc2f2edbd842ca91b20cd5020aa21dfe26ab0be9828247604051610359939291906104c1565b60405180910390a15050565b80341461037157600080fd5b7f90890809c654f11d6e72a28fa60149770a0d11ec6c92319d6ceb2bb0a4ea1a153334476040516103a4939291906104f8565b60405180910390a150565b600047905090565b6000813590506103c6816106c5565b92915050565b6000813590506103db816106dc565b92915050565b600080604083850312156103f8576103f7610648565b5b6000610406858286016103b7565b9250506020610417858286016103cc565b9150509250929050565b60006020828403121561043757610436610648565b5b6000610445848285016103cc565b91505092915050565b61045781610612565b82525050565b610466816105c4565b82525050565b60006104796029836105b3565b91506104848261064d565b604082019050919050565b600061049c600d836105b3565b91506104a78261069c565b602082019050919050565b6104bb81610608565b82525050565b60006060820190506104d6600083018661044e565b6104e360208301856104b2565b6104f060408301846104b2565b949350505050565b600060608201905061050d600083018661045d565b61051a60208301856104b2565b61052760408301846104b2565b949350505050565b600060208201905081810360008301526105488161046c565b9050919050565b600060208201905081810360008301526105688161048f565b9050919050565b600060208201905061058460008301846104b2565b92915050565b600060408201905061059f60008301856104b2565b6105ac60208301846104b2565b9392505050565b600082825260208201905092915050565b60006105cf826105e8565b9050919050565b60006105e1826105e8565b9050919050565b600073ffffffffffffffffffffffffffffffffffffffff82169050919050565b6000819050919050565b600061061d82610624565b9050919050565b600061062f82610636565b9050919050565b6000610641826105e8565b9050919050565b600080fd5b7f43616e6e6f74207769746864726177206d6f7265207468616e206163636f756e60008201527f742062616c616e63650000000000000000000000000000000000000000000000602082015250565b7f4d757374206265206f776e657200000000000000000000000000000000000000600082015250565b6106ce816105d6565b81146106d957600080fd5b50565b6106e581610608565b81146106f057600080fd5b5056fea2646970667358221220063c2f48958c323bc46036c0ce495207c75e45e68b6d49ae4d2e8c37bfd44d6764736f6c63430008060033",
  "immutableReferences": {},
  "source": "// SPDX-License-Identifier: MIT\npragma solidity ^0.8.6;\n\ncontract SimpleWallet {\n  // State Variables\n  address payable  owner;\n\n  // Events\n  event Deposit(address sender, uint amount, uint balance);\n  event Widthdraw(uint amount, uint balance);\n  event Transfer(address to, uint amount, uint balance);\n\n  // Modifiers\n  modifier onlyOwner() {\n    require(msg.sender == owner, \"Must be owner\");\n    _;\n  }\n \n//  constructor() payable {\n//      owner = msg.sender;\n//  }\n \n  // Functions\n  function deposit(uint _amount) public payable {\n      require(msg.value == _amount);\n    emit Deposit(msg.sender, msg.value, address(this).balance);\n  }\n\n  function withdraw(uint _amount) public onlyOwner {\n     require(_amount <= address(this).balance, \"Cannot withdraw more than account balance\");\n    owner.transfer(_amount);\n    emit Widthdraw(_amount, address(this).balance);\n  }\n\n  function transferFunds(address payable _to, uint _amount) public onlyOwner {\n    _to.transfer(_amount);\n    emit Transfer(_to, _amount, address(this).balance);\n  }\n\n  function getBalace() public view returns (uint){\n    return address(this).balance;\n  }\n}",
  "sourcePath": "/Users/shih-yuhwang/Portfolio/Simple-Wallet/contracts/SimpleWallet.sol",
  "compiler": {
    "name": "solc",
    "version": "0.8.6+commit.11564f7e.Emscripten.clang"
  },
  "schemaVersion": "3.4.1",
  "updatedAt": "2021-07-09T16:31:40.936Z",
  "networkType": "ethereum",
  "devdoc": {
    "kind": "dev",
    "methods": {},
    "version": 1
  },
  "userdoc": {
    "kind": "user",
    "methods": {},
    "version": 1
  }
}